S00D000074657374322E7372656325
S11300000C942A000C943F000C943F000C943F0085
S11300100C943F000C943F000C943F000C943F0060
S11300200C943F000C943F000C943F000C943F0050
S11300300C943F000C943F000C943F000C943F0040
S11300400C943F000C943F000C943F000C943F0030
S11300500C943F0011241FBECFE5D8E0DEBFCDBF16
S113006010E0A0E6B0E0E6E9F1E002C005900D92F0
S1130070A836B107D9F70E9474000C94C9000C94F7
S11300800000F894E199FECF0E94A70078940895A7
S11300908FEF87BB18BA0895EF92FF920F931F93C7
S11300A0CF93DF9361157105C1F07B01082F192FE0
S11300B0C0E0D0E0F801619171918F01CE01880F09
S11300C0991F0E94410083EC99E00197F1F700C069
S11300D000002196EC16FD0669F7DF91CF911F9180
S11300E00F91FF90EF900895CF93DF93CDB7DEB7D4
S11300F028970FB6F894DEBF0FBECDBF0E9448000C
S113010088E0E0E6F0E0DE01119601900D928A9518
S1130110E1F718BA2FE78AE196E021508040904039
S1130120E1F700C0000064E070E0CE0101960E9497
S11301304C00E199FECF82E090E00E94A10088BBD0
S1130140FFCFA8E1B0E042E050E00C94AE000E9482
S1130150BC00272F0C94BD00DC01CB01FC01E1990C
S1130160FECF06C0FFBBEEBBE09A31960DB20D92F6
S113017041505040B8F70895262FE199FECF9FBB18
S11301808EBB2DBB0FB6F894E29AE19A0FBE01968E
S10901900895F894FFCF6E
S10B019601000400020007004F
S9030000FC
