S00A000050432E7372656387
S11300000C942A000C9434000C9434000C943400A6
S11300100C9434000C9434000C9434000C9434008C
S11300200C9434000C9434000C9434000C9434007C
S11300300C9434000C9434000C9434000C9434006C
S11300400C9434000C9434000C9434000C9434005C
S11300500C94340011241FBECFE5D8E0DEBFCDBF21
S11300600E9436000C9468000C9400008FEF8ABB49
S113007017BA11BA18BA12BA1BBA20E030E0E0E09D
S1130080F0E076B380B3881F8827881F90E060B3C0
S113009050B340B32130310599F4009789F454FFEB
S11300A003C0E72FF0E00BC065FF08C04F70242F9A
S11300B030E02F5F3F4FE20FF31F01C03196EBBBDF
S11300C0A3ECB9E01197F1F700C000009C01D9CF6F
S10700D0F894FFCFCE
S9030000FC
