S00D000054657374312E7372656346
S11300000C942A000C9447000C9447000C9447006D
S11300100C9447000C9447000C9447000C94470040
S11300200C9447000C9447000C9447000C94470030
S11300300C9447000C9447000C9447000C94470020
S11300400C9447000C9447000C9447000C94470010
S11300500C94470011241FBECFE5D8E0DEBFCDBF0E
S113006010E0A0E6B0E0EAE3F1E002C005900D92F2
S1130070A236B107D9F720E0A2E6B0E001C01D9294
S1130080A436B207E1F70E9454000C949B000C9430
S11300900000F894E199FECF0E94790078940895C5
S11300A08FEF87BB18BA08950E9450002FE78AE1AA
S11300B096E0215080409040E1F700C0000060913C
S11300C060007091610080E090E00E944900E19935
S11300D0FECF80E090E00E947300809362009093D2
S11300E0630088BBFFCFA8E1B0E042E050E00C948D
S11300F080000E948E00272F0C948F00DC01CB011E
S1130100FC01E199FECF06C0FFBBEEBBE09A31963D
S11301100DB20D9241505040B8F70895262FE19941
S1130120FECF9FBB8EBB2DBB0FB6F894E29AE19A2B
S10D01300FBE01960895F894FFCF66
S105013A0700B8
S9030000FC
