S00B0000414C552E7372656337
S11300000C942A000C943C000C943C000C943C008E
S11300100C943C000C943C000C943C000C943C006C
S11300200C943C000C943C000C943C000C943C005C
S11300300C943C000C943C000C943C000C943C004C
S11300400C943C000C943C000C943C000C943C003C
S11300500C943C0011241FBECFE5D8E0DEBFCDBF19
S113006020E0A0E6B0E001C01D92A036B207E1F79F
S11300700E943E000C9415010C94000084B7806823
S113008084BF84B7806884BF8FEF8ABB17BA14BA61
S113009011BA91E09BBB88BB8FE082BB85BBE0E0DB
S11300A0F0E0D0E0C0E00F2EFFE0AF2EF02DB1E085
S11300B0A0E000B3802F8F70E82EF12C96B3892F27
S11300C08F70C82ED12C96B392959F70292F30E053
S11300D0B0B2B4FA442740F950E0B5FA662760F9A3
S11300E070E011E0E116F10439F01BE0E116F104CF
S11300F019F00D70043069F4C601820F931F8F70DC
S11301009078992324F40197806F9F6F0196FC01E6
S113011065C01EE0E116F10461F019E0E116F10496
S113012041F015E0E116F10421F013E0E116F104C9
S113013071F4C601821B930B40968F7090789923BB
S113014024F40197806F9F6F0196FC0147C028E05B
S1130150E216F10421F032E0E316F10421F49823CD
S1130160E92FF0E03BC0E114F10421F01DE0E116B9
S1130170F10421F4982BE92FF0E030C02CE0E216D2
S1130180F10431F4982B892F8A25E82FF0E026C05A
S113019037E0E316F10489F4960102C0220F331FFD
S11301A09A95E2F7C9018F709078992324F4019706
S11301B0806F9F6F0196FC0111C03AE0E316F104D1
S11301C039F4F60102C0F595E7959A95E2F706C071
S11301D08FE0E816F10411F4ED2FFC2F7F019FE06E
S11301E0E922FF248B2F9A2FE114F10411F08D2FB3
S11301F09C2F9C01242335238B2F9A2FEF2811F455
S11302008D2F9C2F86239723822B932B8295929557
S1130210907F9827807F98278E2B8BBB83EC99E067
S11102200197F1F700C0000044CFF894FFCF1F
S9030000FC
