:100000000C942A000C943C000C943C000C943C0092
:100010000C943C000C943C000C943C000C943C0070
:100020000C943C000C943C000C943C000C943C0060
:100030000C943C000C943C000C943C000C943C0050
:100040000C943C000C943C000C943C000C943C0040
:100050000C943C0011241FBECFE5D8E0DEBFCDBF1D
:1000600020E0A0E6B0E001C01D92A036B207E1F7A3
:100070000E943E000C9404010C94000084B7806838
:1000800084BF84B7806884BF8FEF8ABB17BA14BA65
:1000900011BA91E09BBB88BB8FE082BB15BA60E0D0
:1000A00070E0A12CE12C0F2EFFE0FF2EF02DD1E00F
:1000B000C0E0E0B3EF70AE2FB0E0F6B31F2F1F70BB
:1000C000812F90E0F6B3F295FF70CF2ED12CB3B212
:1000D0002B2D217030E0B1FA442740F950E0A430D4
:1000E000B10539F0A730B10521F007EF0E0F02304E
:1000F00078F4BC016C0D7D1D6F70707877230CF067
:100100005EC061507109606F7F6F6F5F7F4F57C036
:10011000AD30B10531F0A830B10519F0E150E23051
:1001200088F4BC016C197D09605F7F4F6F70707837
:1001300077230CF044C061507109606F7F6F6F5F6F
:100140007F4F3DC0A630B10519F0AB30B10521F4A9
:10015000F1236F2F70E033C0AF30B10519F0A33039
:10016000B10521F4F12B6F2F70E029C0A530B10546
:1001700029F4F12BFF256F2F70E021C0109789F42F
:10018000BC0102C0660F771FFA95E2F76F707078B6
:100190007723ACF461507109606F7F6F6F5F7F4FA1
:1001A0000EC0AE30B10539F4BC0102C0759567953B
:1001B000FA95E2F704C01C9711F46A2D7E2DDB013D
:1001C000AF70BB278D2F9C2F109711F08A2D9E2D7D
:1001D000FC01E223F3238D2F9C2FAB2B11F48A2DEE
:1001E0009E2D842395238E2B9F2B82959295907F15
:1001F0009827807F9827862B8BBB83EC99E001970B
:0C020000F1F700C0000055CFF894FFCFCC
:00000001FF
