S0140000436F6E74726F6C20556E69742E737265636F
S11300000C942A000C9447000C9447000C9447006D
S11300100C9447000C9447000C9447000C94470040
S11300200C9447000C9447000C9447000C94470030
S11300300C9447000C9447000C9447000C94470020
S11300400C9447000C9447000C9447000C94470010
S11300500C94470011241FBECFE5D8E0DEBFCDBF0E
S113006010E0A0E6B0E0ECE0F1E002C005900D92F3
S1130070A038B107D9F720E0A0E8B0E001C01D9294
S1130080A038B207E1F70E9449000C9484000C9454
S1130090000084B7806884BF84B7806884BF8FEF12
S11300A08ABB17BA11BA84BB8BBB18BA12BA85BB08
S11300B086B38F70282F30E0F901EE0FFF1FE05A4E
S11300C0FF4F40815181507855232CF44150510900
S11300D05F6F4F5F5F4F4BBB220F331FF901E05A35
S11300E0FF4F20813181332314F421503F4F932F4C
S11300F09F708295807F892B85BB83EC99E0019763
S10F0100F1F700C00000D4CFF894FFCF4A
S113010C040B8002400204050600060806060401DE
S113011C040310012C01040701000602040D06045B
S9030000FC
