S01200004C4544204D61747269782E73726563A8
S11300000C942A000C943F000C943F000C943F0085
S11300100C943F000C943F000C943F000C943F0060
S11300200C943F000C943F000C943F000C943F0050
S11300300C943F000C943F000C943F000C943F0040
S11300400C943F000C943F000C943F000C943F0030
S11300500C943F0011241FBECFE5D8E0DEBFCDBF16
S113006010E0A0E6B0E0E0EFF0E002C005900D92F1
S1130070A037B107D9F70E9471000C9476000C9454
S1130080000040E750E060E070E027C081918BBB46
S1130090C90187709078992324F40197886F9F6F22
S11300A00196DC01A05ABF4F8C91809588BB81EEEC
S11300B094E00197F1F700C000002F5F3F4FE41771
S11300C0F50721F785EA9EE00197F1F700C00000EB
S11300D06F5F7F4F68307105B1F2E8E6F0E09B0195
S11300E0D5CF8FEF8ABB87BB0E944100F894FFCF26
S11300F0007048487040400001020408102040800D
S9030000FC
