:100000000C942A000C9434000C9434000C943400AA
:100010000C9434000C9434000C9434000C94340090
:100020000C9434000C9434000C9434000C94340080
:100030000C9434000C9434000C9434000C94340070
:100040000C9434000C9434000C9434000C94340060
:100050000C94340011241FBECFE5D8E0DEBFCDBF25
:100060000E9436000C9461000C9400008FE08ABB63
:100070008CEF87BB80E0B09B12C08C5F803108F0B2
:100080008F70982F9F709BBBB099FECF2FE936E8F9
:1000900091E0215030409040E1F700C00000B19B5A
:1000A000EACF8450982F9F709BBBB199FECF2FE968
:1000B00036E891E0215030409040E1F700C0000068
:0600C000DACFF894FFCF37
:00000001FF
