:100000000C942A000C943F000C943F000C943F0089
:100010000C943F000C943F000C943F000C943F0064
:100020000C943F000C943F000C943F000C943F0054
:100030000C943F000C943F000C943F000C943F0044
:100040000C943F000C943F000C943F000C943F0034
:100050000C943F0011241FBECFE5D8E0DEBFCDBF1A
:1000600012E0A0E6B0E0EAEFF0E002C005900D92E9
:10007000A036B107D9F70E9441000C947B000C9484
:1000800000008FEF8ABB17BA84BB81BB84B780683E
:1000900084BF84B7806884BF1BBA15BAE6B3F0E0AA
:1000A000EE0FFF1FE05AFF4F20813181C901807F91
:1000B0009927A90144275F70B9016F707727682BD2
:1000C0006BBB2227307F252F232B25BB52954295D2
:1000D0004F7045275F704527929582958F708927CD
:1000E0009F708927842B82BB83EC99E00197F1F7FD
:0A00F00000C00000D3CFF894FFCF4A
:1000FA0023723473344224D441743464345234F253
:10010A0022B23F333583211331735F35539133A1C3
:10011A00358330C131835F355DB5520552E520B272
:10012A0030B327323733212321725F35227233737A
:10013A0000000000000000000000000000000000B5
:10014A0000000000000000000000000000000000A5
:10015A000000000000000000000000000000000095
:10016A000000000000000000000000000000000085
:10017A000000000000000000000000000000000075
:10018A000000000000000000000000000000000065
:10019A000000000000000000000000000000000055
:1001AA000000000000000000000000000000000045
:1001BA000000000000000000000000000000000035
:1001CA000000000000000000000000000000000025
:1001DA000000000000000000000000000000000015
:1001EA000000000000000000000000000000000005
:1001FA0000000000000000000000000000000000F5
:10020A0000000000000000000000000000000000E4
:10021A0000000000000000000000000000000000D4
:10022A0000000000000000000000000000000000C4
:10023A0000000000000000000000000000000000B4
:10024A0000000000000000000000000000000000A4
:10025A000000000000000000000000000000000094
:10026A000000000000000000000000000000000084
:10027A000000000000000000000000000000000074
:10028A000000000000000000000000000000000064
:10029A000000000000000000000000000000000054
:1002AA000000000000000000000000000000000044
:1002BA000000000000000000000000000000000034
:1002CA000000000000000000000000000000000024
:1002DA000000000000000000000000000000000014
:1002EA000000000000000000000000000000000004
:00000001FF
